{"abi":[{"type":"constructor","inputs":[{"name":"_tokenX","type":"address","internalType":"address"},{"name":"_tokenY","type":"address","internalType":"address"}],"stateMutability":"nonpayable"},{"type":"function","name":"addLiquidity","inputs":[{"name":"xAmountIn","type":"uint256","internalType":"uint256"},{"name":"yAmountIn","type":"uint256","internalType":"uint256"}],"outputs":[{"name":"lpMinted","type":"uint256","internalType":"uint256"}],"stateMutability":"nonpayable"},{"type":"function","name":"allowance","inputs":[{"name":"owner","type":"address","internalType":"address"},{"name":"spender","type":"address","internalType":"address"}],"outputs":[{"name":"","type":"uint256","internalType":"uint256"}],"stateMutability":"view"},{"type":"function","name":"approve","inputs":[{"name":"spender","type":"address","internalType":"address"},{"name":"value","type":"uint256","internalType":"uint256"}],"outputs":[{"name":"","type":"bool","internalType":"bool"}],"stateMutability":"nonpayable"},{"type":"function","name":"balanceOf","inputs":[{"name":"account","type":"address","internalType":"address"}],"outputs":[{"name":"","type":"uint256","internalType":"uint256"}],"stateMutability":"view"},{"type":"function","name":"decimals","inputs":[],"outputs":[{"name":"","type":"uint8","internalType":"uint8"}],"stateMutability":"view"},{"type":"function","name":"k","inputs":[],"outputs":[{"name":"","type":"uint256","internalType":"uint256"}],"stateMutability":"view"},{"type":"function","name":"name","inputs":[],"outputs":[{"name":"","type":"string","internalType":"string"}],"stateMutability":"view"},{"type":"function","name":"removeLiquidity","inputs":[{"name":"lpAmount","type":"uint256","internalType":"uint256"}],"outputs":[{"name":"xAmount","type":"uint256","internalType":"uint256"},{"name":"yAmount","type":"uint256","internalType":"uint256"}],"stateMutability":"nonpayable"},{"type":"function","name":"swap","inputs":[{"name":"xAmountIn","type":"uint256","internalType":"uint256"},{"name":"yAmountIn","type":"uint256","internalType":"uint256"}],"outputs":[],"stateMutability":"nonpayable"},{"type":"function","name":"symbol","inputs":[],"outputs":[{"name":"","type":"string","internalType":"string"}],"stateMutability":"view"},{"type":"function","name":"tokenX","inputs":[],"outputs":[{"name":"","type":"address","internalType":"address"}],"stateMutability":"view"},{"type":"function","name":"tokenY","inputs":[],"outputs":[{"name":"","type":"address","internalType":"address"}],"stateMutability":"view"},{"type":"function","name":"totalSupply","inputs":[],"outputs":[{"name":"","type":"uint256","internalType":"uint256"}],"stateMutability":"view"},{"type":"function","name":"transfer","inputs":[{"name":"to","type":"address","internalType":"address"},{"name":"value","type":"uint256","internalType":"uint256"}],"outputs":[{"name":"","type":"bool","internalType":"bool"}],"stateMutability":"nonpayable"},{"type":"function","name":"transferFrom","inputs":[{"name":"from","type":"address","internalType":"address"},{"name":"to","type":"address","internalType":"address"},{"name":"value","type":"uint256","internalType":"uint256"}],"outputs":[{"name":"","type":"bool","internalType":"bool"}],"stateMutability":"nonpayable"},{"type":"function","name":"xReserve","inputs":[],"outputs":[{"name":"","type":"uint256","internalType":"uint256"}],"stateMutability":"view"},{"type":"function","name":"yReserve","inputs":[],"outputs":[{"name":"","type":"uint256","internalType":"uint256"}],"stateMutability":"view"},{"type":"event","name":"AddLiquidity","inputs":[{"name":"xAmountIn","type":"uint256","indexed":false,"internalType":"uint256"},{"name":"yAmountIn","type":"uint256","indexed":false,"internalType":"uint256"}],"anonymous":false},{"type":"event","name":"Approval","inputs":[{"name":"owner","type":"address","indexed":true,"internalType":"address"},{"name":"spender","type":"address","indexed":true,"internalType":"address"},{"name":"value","type":"uint256","indexed":false,"internalType":"uint256"}],"anonymous":false},{"type":"event","name":"Swap","inputs":[{"name":"xAmountIn","type":"uint256","indexed":false,"internalType":"uint256"},{"name":"yAmountIn","type":"uint256","indexed":false,"internalType":"uint256"},{"name":"xAmountOut","type":"uint256","indexed":false,"internalType":"uint256"},{"name":"yAmountOut","type":"uint256","indexed":false,"internalType":"uint256"}],"anonymous":false},{"type":"event","name":"Transfer","inputs":[{"name":"from","type":"address","indexed":true,"internalType":"address"},{"name":"to","type":"address","indexed":true,"internalType":"address"},{"name":"value","type":"uint256","indexed":false,"internalType":"uint256"}],"anonymous":false},{"type":"error","name":"ERC20InsufficientAllowance","inputs":[{"name":"spender","type":"address","internalType":"address"},{"name":"allowance","type":"uint256","internalType":"uint256"},{"name":"needed","type":"uint256","internalType":"uint256"}]},{"type":"error","name":"ERC20InsufficientBalance","inputs":[{"name":"sender","type":"address","internalType":"address"},{"name":"balance","type":"uint256","internalType":"uint256"},{"name":"needed","type":"uint256","internalType":"uint256"}]},{"type":"error","name":"ERC20InvalidApprover","inputs":[{"name":"approver","type":"address","internalType":"address"}]},{"type":"error","name":"ERC20InvalidReceiver","inputs":[{"name":"receiver","type":"address","internalType":"address"}]},{"type":"error","name":"ERC20InvalidSender","inputs":[{"name":"sender","type":"address","internalType":"address"}]},{"type":"error","name":"ERC20InvalidSpender","inputs":[{"name":"spender","type":"address","internalType":"address"}]}],"bytecode":{"object":"0x608060405260006005556000600655600060075534801561001f57600080fd5b50604051612c11380380612c11833981810160405281019061004191906103c7565b81816040518060400160405280600a81526020017f4d696e69414d4d204c50000000000000000000000000000000000000000000008152506040518060400160405280600781526020017f4d494e492d4c500000000000000000000000000000000000000000000000000081525081600390816100be9190610657565b5080600490816100ce9190610657565b5050505050600073ffffffffffffffffffffffffffffffffffffffff168273ffffffffffffffffffffffffffffffffffffffff1603610142576040517f08c379a000000000000000000000000000000000000000000000000000000000815260040161013990610786565b60405180910390fd5b600073ffffffffffffffffffffffffffffffffffffffff168173ffffffffffffffffffffffffffffffffffffffff16036101b1576040517f08c379a00000000000000000000000000000000000000000000000000000000081526004016101a8906107f2565b60405180910390fd5b8073ffffffffffffffffffffffffffffffffffffffff168273ffffffffffffffffffffffffffffffffffffffff160361021f576040517f08c379a00000000000000000000000000000000000000000000000000000000081526004016102169061085e565b60405180910390fd5b8073ffffffffffffffffffffffffffffffffffffffff168273ffffffffffffffffffffffffffffffffffffffff1610156102da5781600860006101000a81548173ffffffffffffffffffffffffffffffffffffffff021916908373ffffffffffffffffffffffffffffffffffffffff16021790555080600960006101000a81548173ffffffffffffffffffffffffffffffffffffffff021916908373ffffffffffffffffffffffffffffffffffffffff16021790555061035d565b80600860006101000a81548173ffffffffffffffffffffffffffffffffffffffff021916908373ffffffffffffffffffffffffffffffffffffffff16021790555081600960006101000a81548173ffffffffffffffffffffffffffffffffffffffff021916908373ffffffffffffffffffffffffffffffffffffffff1602179055505b505061087e565b600080fd5b600073ffffffffffffffffffffffffffffffffffffffff82169050919050565b600061039482610369565b9050919050565b6103a481610389565b81146103af57600080fd5b50565b6000815190506103c18161039b565b92915050565b600080604083850312156103de576103dd610364565b5b60006103ec858286016103b2565b92505060206103fd858286016103b2565b9150509250929050565b600081519050919050565b7f4e487b7100000000000000000000000000000000000000000000000000000000600052604160045260246000fd5b7f4e487b7100000000000000000000000000000000000000000000000000000000600052602260045260246000fd5b6000600282049050600182168061048857607f821691505b60208210810361049b5761049a610441565b5b50919050565b60008190508160005260206000209050919050565b60006020601f8301049050919050565b600082821b905092915050565b6000600883026105037fffffffffffffffffffffffffffffffffffffffffffffffffffffffffffffffff826104c6565b61050d86836104c6565b95508019841693508086168417925050509392505050565b6000819050919050565b6000819050919050565b600061055461054f61054a84610525565b61052f565b610525565b9050919050565b6000819050919050565b61056e83610539565b61058261057a8261055b565b8484546104d3565b825550505050565b600090565b61059761058a565b6105a2818484610565565b505050565b5b818110156105c6576105bb60008261058f565b6001810190506105a8565b5050565b601f82111561060b576105dc816104a1565b6105e5846104b6565b810160208510156105f4578190505b610608610600856104b6565b8301826105a7565b50505b505050565b600082821c905092915050565b600061062e60001984600802610610565b1980831691505092915050565b6000610647838361061d565b9150826002028217905092915050565b61066082610407565b67ffffffffffffffff81111561067957610678610412565b5b6106838254610470565b61068e8282856105ca565b600060209050601f8311600181146106c157600084156106af578287015190505b6106b9858261063b565b865550610721565b601f1984166106cf866104a1565b60005b828110156106f7578489015182556001820191506020850194506020810190506106d2565b868310156107145784890151610710601f89168261061d565b8355505b6001600288020188555050505b505050505050565b600082825260208201905092915050565b7f746f6b656e582063616e6e6f74206265207a65726f2061646472657373000000600082015250565b6000610770601d83610729565b915061077b8261073a565b602082019050919050565b6000602082019050818103600083015261079f81610763565b9050919050565b7f746f6b656e592063616e6e6f74206265207a65726f2061646472657373000000600082015250565b60006107dc601d83610729565b91506107e7826107a6565b602082019050919050565b6000602082019050818103600083015261080b816107cf565b9050919050565b7f546f6b656e73206d75737420626520646966666572656e740000000000000000600082015250565b6000610848601883610729565b915061085382610812565b602082019050919050565b600060208201905081810360008301526108778161083b565b9050919050565b6123848061088d6000396000f3fe608060405234801561001057600080fd5b506004361061010b5760003560e01c806399839d66116100a2578063b4f40c6111610071578063b4f40c61146102e5578063b7d19fc414610303578063d96073cf14610321578063dd62ed3e1461033d578063fc4b6b501461036d5761010b565b806399839d66146102365780639c8f9f23146102545780639cd441da14610285578063a9059cbb146102b55761010b565b806323b872dd116100de57806323b872dd1461019a578063313ce567146101ca57806370a08231146101e857806395d89b41146102185761010b565b806306fdde0314610110578063095ea7b31461012e57806316dc165b1461015e57806318160ddd1461017c575b600080fd5b61011861038b565b6040516101259190611ac0565b60405180910390f35b61014860048036038101906101439190611b7b565b61041d565b6040516101559190611bd6565b60405180910390f35b610166610440565b6040516101739190611c00565b60405180910390f35b610184610466565b6040516101919190611c2a565b60405180910390f35b6101b460048036038101906101af9190611c45565b610470565b6040516101c19190611bd6565b60405180910390f35b6101d261049f565b6040516101df9190611cb4565b60405180910390f35b61020260048036038101906101fd9190611ccf565b6104a8565b60405161020f9190611c2a565b60405180910390f35b6102206104f0565b60405161022d9190611ac0565b60405180910390f35b61023e610582565b60405161024b9190611c2a565b60405180910390f35b61026e60048036038101906102699190611cfc565b610588565b60405161027c929190611d29565b60405180910390f35b61029f600480360381019061029a9190611d52565b610800565b6040516102ac9190611c2a565b60405180910390f35b6102cf60048036038101906102ca9190611b7b565b61086c565b6040516102dc9190611bd6565b60405180910390f35b6102ed61088f565b6040516102fa9190611c2a565b60405180910390f35b61030b610895565b6040516103189190611c00565b60405180910390f35b61033b60048036038101906103369190611d52565b6108bb565b005b61035760048036038101906103529190611d92565b610e21565b6040516103649190611c2a565b60405180910390f35b610375610ea8565b6040516103829190611c2a565b60405180910390f35b60606003805461039a90611e01565b80601f01602080910402602001604051908101604052809291908181526020018280546103c690611e01565b80156104135780601f106103e857610100808354040283529160200191610413565b820191906000526020600020905b8154815290600101906020018083116103f657829003601f168201915b5050505050905090565b600080610428610eae565b9050610435818585610eb6565b600191505092915050565b600860009054906101000a900473ffffffffffffffffffffffffffffffffffffffff1681565b6000600254905090565b60008061047b610eae565b9050610488858285610ec8565b610493858585610f5d565b60019150509392505050565b60006012905090565b60008060008373ffffffffffffffffffffffffffffffffffffffff1673ffffffffffffffffffffffffffffffffffffffff168152602001908152602001600020549050919050565b6060600480546104ff90611e01565b80601f016020809104026020016040519081016040528092919081815260200182805461052b90611e01565b80156105785780601f1061054d57610100808354040283529160200191610578565b820191906000526020600020905b81548152906001019060200180831161055b57829003601f168201915b5050505050905090565b60065481565b600080600083116105ce576040517f08c379a00000000000000000000000000000000000000000000000000000000081526004016105c590611e7e565b60405180910390fd5b60006105d8610466565b90506000811161061d576040517f08c379a000000000000000000000000000000000000000000000000000000000815260040161061490611eea565b60405180910390fd5b808460065461062c9190611f39565b6106369190611faa565b925080846007546106479190611f39565b6106519190611faa565b915061065d3385611051565b8260065461066b9190611fdb565b6006819055508160075461067f9190611fdb565b600781905550600860009054906101000a900473ffffffffffffffffffffffffffffffffffffffff1673ffffffffffffffffffffffffffffffffffffffff1663a9059cbb33856040518363ffffffff1660e01b81526004016106e292919061200f565b6020604051808303816000875af1158015610701573d6000803e3d6000fd5b505050506040513d601f19601f820116820180604052508101906107259190612064565b50600960009054906101000a900473ffffffffffffffffffffffffffffffffffffffff1673ffffffffffffffffffffffffffffffffffffffff1663a9059cbb33846040518363ffffffff1660e01b815260040161078392919061200f565b6020604051808303816000875af11580156107a2573d6000803e3d6000fd5b505050506040513d601f19601f820116820180604052508101906107c69190612064565b5060006107d1610466565b036107e35760006005819055506107fa565b6007546006546107f39190611f39565b6005819055505b50915091565b60008061080b610466565b036108215761081a838361105f565b905061082d565b61082a8361123f565b90505b7fcb1652de9aeec38545fc281847b3dbfc89aab56dfa907b1ab68466f602c36fb4838360405161085e929190611d29565b60405180910390a192915050565b600080610877610eae565b9050610884818585610f5d565b600191505092915050565b60055481565b600960009054906101000a900473ffffffffffffffffffffffffffffffffffffffff1681565b6000821180156108cb5750600081115b1561090b576040517f08c379a000000000000000000000000000000000000000000000000000000000815260040161090290612103565b60405180910390fd5b600082118061091a5750600081115b610959576040517f08c379a00000000000000000000000000000000000000000000000000000000081526004016109509061216f565b60405180910390fd5b600060065411801561096d57506000600754115b6109ac576040517f08c379a00000000000000000000000000000000000000000000000000000000081526004016109a390611eea565b60405180910390fd5b6000806000841115610bc2576006548411156109fd576040517f08c379a00000000000000000000000000000000000000000000000000000000081526004016109f4906121db565b60405180910390fd5b600860009054906101000a900473ffffffffffffffffffffffffffffffffffffffff1673ffffffffffffffffffffffffffffffffffffffff166323b872dd3330876040518463ffffffff1660e01b8152600401610a5c939291906121fb565b6020604051808303816000875af1158015610a7b573d6000803e3d6000fd5b505050506040513d601f19601f82011682018060405250810190610a9f9190612064565b5060006103e585610ab09190611f39565b9050600060075482610ac29190611f39565b90506000826103e8600654610ad79190611f39565b610ae19190612232565b90508082610aef9190611faa565b935086600654610aff9190612232565b60068190555083600754610b139190611fdb565b600781905550600960009054906101000a900473ffffffffffffffffffffffffffffffffffffffff1673ffffffffffffffffffffffffffffffffffffffff1663a9059cbb33866040518363ffffffff1660e01b8152600401610b7692919061200f565b6020604051808303816000875af1158015610b95573d6000803e3d6000fd5b505050506040513d601f19601f82011682018060405250810190610bb99190612064565b50505050610dc8565b600754831115610c07576040517f08c379a0000000000000000000000000000000000000000000000000000000008152600401610bfe906121db565b60405180910390fd5b600960009054906101000a900473ffffffffffffffffffffffffffffffffffffffff1673ffffffffffffffffffffffffffffffffffffffff166323b872dd3330866040518463ffffffff1660e01b8152600401610c66939291906121fb565b6020604051808303816000875af1158015610c85573d6000803e3d6000fd5b505050506040513d601f19601f82011682018060405250810190610ca99190612064565b5060006103e584610cba9190611f39565b9050600060065482610ccc9190611f39565b90506000826103e8600754610ce19190611f39565b610ceb9190612232565b90508082610cf99190611faa565b945085600754610d099190612232565b60078190555084600654610d1d9190611fdb565b600681905550600860009054906101000a900473ffffffffffffffffffffffffffffffffffffffff1673ffffffffffffffffffffffffffffffffffffffff1663a9059cbb33876040518363ffffffff1660e01b8152600401610d8092919061200f565b6020604051808303816000875af1158015610d9f573d6000803e3d6000fd5b505050506040513d601f19601f82011682018060405250810190610dc39190612064565b505050505b600754600654610dd89190611f39565b6005819055507f298c349c742327269dc8de6ad66687767310c948ea309df826f5bd103e19d20784848484604051610e139493929190612266565b60405180910390a150505050565b6000600160008473ffffffffffffffffffffffffffffffffffffffff1673ffffffffffffffffffffffffffffffffffffffff16815260200190815260200160002060008373ffffffffffffffffffffffffffffffffffffffff1673ffffffffffffffffffffffffffffffffffffffff16815260200190815260200160002054905092915050565b60075481565b600033905090565b610ec383838360016114ad565b505050565b6000610ed48484610e21565b90507fffffffffffffffffffffffffffffffffffffffffffffffffffffffffffffffff811015610f575781811015610f47578281836040517ffb8f41b2000000000000000000000000000000000000000000000000000000008152600401610f3e939291906122ab565b60405180910390fd5b610f56848484840360006114ad565b5b50505050565b600073ffffffffffffffffffffffffffffffffffffffff168373ffffffffffffffffffffffffffffffffffffffff1603610fcf5760006040517f96c6fd1e000000000000000000000000000000000000000000000000000000008152600401610fc69190611c00565b60405180910390fd5b600073ffffffffffffffffffffffffffffffffffffffff168273ffffffffffffffffffffffffffffffffffffffff16036110415760006040517fec442f050000000000000000000000000000000000000000000000000000000081526004016110389190611c00565b60405180910390fd5b61104c838383611684565b505050565b61105b82826118a9565b5050565b600080831180156110705750600082115b6110af576040517f08c379a00000000000000000000000000000000000000000000000000000000081526004016110a69061232e565b60405180910390fd5b600860009054906101000a900473ffffffffffffffffffffffffffffffffffffffff1673ffffffffffffffffffffffffffffffffffffffff166323b872dd3330866040518463ffffffff1660e01b815260040161110e939291906121fb565b6020604051808303816000875af115801561112d573d6000803e3d6000fd5b505050506040513d601f19601f820116820180604052508101906111519190612064565b50600960009054906101000a900473ffffffffffffffffffffffffffffffffffffffff1673ffffffffffffffffffffffffffffffffffffffff166323b872dd3330856040518463ffffffff1660e01b81526004016111b1939291906121fb565b6020604051808303816000875af11580156111d0573d6000803e3d6000fd5b505050506040513d601f19601f820116820180604052508101906111f49190612064565b5082600681905550816007819055506007546006546112139190611f39565b60058190555061122d82846112289190611f39565b61192b565b905061123933826119a0565b92915050565b6000808211611283576040517f08c379a000000000000000000000000000000000000000000000000000000000815260040161127a90611e7e565b60405180910390fd5b60006006549050600060075490506000821180156112a15750600081115b6112e0576040517f08c379a00000000000000000000000000000000000000000000000000000000081526004016112d790611eea565b60405180910390fd5b60008282866112ef9190611f39565b6112f99190611faa565b9050600860009054906101000a900473ffffffffffffffffffffffffffffffffffffffff1673ffffffffffffffffffffffffffffffffffffffff166323b872dd3330886040518463ffffffff1660e01b815260040161135a939291906121fb565b6020604051808303816000875af1158015611379573d6000803e3d6000fd5b505050506040513d601f19601f8201168201806040525081019061139d9190612064565b50600960009054906101000a900473ffffffffffffffffffffffffffffffffffffffff1673ffffffffffffffffffffffffffffffffffffffff166323b872dd3330846040518463ffffffff1660e01b81526004016113fd939291906121fb565b6020604051808303816000875af115801561141c573d6000803e3d6000fd5b505050506040513d601f19601f820116820180604052508101906114409190612064565b50828561144b610466565b6114559190611f39565b61145f9190611faa565b935061146b33856119a0565b84836114779190612232565b60068190555080826114899190612232565b60078190555060075460065461149f9190611f39565b600581905550505050919050565b600073ffffffffffffffffffffffffffffffffffffffff168473ffffffffffffffffffffffffffffffffffffffff160361151f5760006040517fe602df050000000000000000000000000000000000000000000000000000000081526004016115169190611c00565b60405180910390fd5b600073ffffffffffffffffffffffffffffffffffffffff168373ffffffffffffffffffffffffffffffffffffffff16036115915760006040517f94280d620000000000000000000000000000000000000000000000000000000081526004016115889190611c00565b60405180910390fd5b81600160008673ffffffffffffffffffffffffffffffffffffffff1673ffffffffffffffffffffffffffffffffffffffff16815260200190815260200160002060008573ffffffffffffffffffffffffffffffffffffffff1673ffffffffffffffffffffffffffffffffffffffff16815260200190815260200160002081905550801561167e578273ffffffffffffffffffffffffffffffffffffffff168473ffffffffffffffffffffffffffffffffffffffff167f8c5be1e5ebec7d5bd14f71427d1e84f3dd0314c0f7b2291e5b200ac8c7c3b925846040516116759190611c2a565b60405180910390a35b50505050565b600073ffffffffffffffffffffffffffffffffffffffff168373ffffffffffffffffffffffffffffffffffffffff16036116d65780600260008282546116ca9190612232565b925050819055506117a9565b60008060008573ffffffffffffffffffffffffffffffffffffffff1673ffffffffffffffffffffffffffffffffffffffff16815260200190815260200160002054905081811015611762578381836040517fe450d38c000000000000000000000000000000000000000000000000000000008152600401611759939291906122ab565b60405180910390fd5b8181036000808673ffffffffffffffffffffffffffffffffffffffff1673ffffffffffffffffffffffffffffffffffffffff16815260200190815260200160002081905550505b600073ffffffffffffffffffffffffffffffffffffffff168273ffffffffffffffffffffffffffffffffffffffff16036117f2578060026000828254039250508190555061183f565b806000808473ffffffffffffffffffffffffffffffffffffffff1673ffffffffffffffffffffffffffffffffffffffff168152602001908152602001600020600082825401925050819055505b8173ffffffffffffffffffffffffffffffffffffffff168373ffffffffffffffffffffffffffffffffffffffff167fddf252ad1be2c89b69c2b068fc378daa952ba7f163c4a11628f55a4df523b3ef8360405161189c9190611c2a565b60405180910390a3505050565b600073ffffffffffffffffffffffffffffffffffffffff168273ffffffffffffffffffffffffffffffffffffffff160361191b5760006040517f96c6fd1e0000000000000000000000000000000000000000000000000000000081526004016119129190611c00565b60405180910390fd5b61192782600083611684565b5050565b600080820361193d576000905061199b565b6000600260018461194e9190612232565b6119589190611faa565b905060008390505b8082101561199557819050600282838661197a9190611faa565b6119849190612232565b61198e9190611faa565b9150611960565b80925050505b919050565b6119aa82826119ae565b5050565b600073ffffffffffffffffffffffffffffffffffffffff168273ffffffffffffffffffffffffffffffffffffffff1603611a205760006040517fec442f05000000000000000000000000000000000000000000000000000000008152600401611a179190611c00565b60405180910390fd5b611a2c60008383611684565b5050565b600081519050919050565b600082825260208201905092915050565b60005b83811015611a6a578082015181840152602081019050611a4f565b60008484015250505050565b6000601f19601f8301169050919050565b6000611a9282611a30565b611a9c8185611a3b565b9350611aac818560208601611a4c565b611ab581611a76565b840191505092915050565b60006020820190508181036000830152611ada8184611a87565b905092915050565b600080fd5b600073ffffffffffffffffffffffffffffffffffffffff82169050919050565b6000611b1282611ae7565b9050919050565b611b2281611b07565b8114611b2d57600080fd5b50565b600081359050611b3f81611b19565b92915050565b6000819050919050565b611b5881611b45565b8114611b6357600080fd5b50565b600081359050611b7581611b4f565b92915050565b60008060408385031215611b9257611b91611ae2565b5b6000611ba085828601611b30565b9250506020611bb185828601611b66565b9150509250929050565b60008115159050919050565b611bd081611bbb565b82525050565b6000602082019050611beb6000830184611bc7565b92915050565b611bfa81611b07565b82525050565b6000602082019050611c156000830184611bf1565b92915050565b611c2481611b45565b82525050565b6000602082019050611c3f6000830184611c1b565b92915050565b600080600060608486031215611c5e57611c5d611ae2565b5b6000611c6c86828701611b30565b9350506020611c7d86828701611b30565b9250506040611c8e86828701611b66565b9150509250925092565b600060ff82169050919050565b611cae81611c98565b82525050565b6000602082019050611cc96000830184611ca5565b92915050565b600060208284031215611ce557611ce4611ae2565b5b6000611cf384828501611b30565b91505092915050565b600060208284031215611d1257611d11611ae2565b5b6000611d2084828501611b66565b91505092915050565b6000604082019050611d3e6000830185611c1b565b611d4b6020830184611c1b565b9392505050565b60008060408385031215611d6957611d68611ae2565b5b6000611d7785828601611b66565b9250506020611d8885828601611b66565b9150509250929050565b60008060408385031215611da957611da8611ae2565b5b6000611db785828601611b30565b9250506020611dc885828601611b30565b9150509250929050565b7f4e487b7100000000000000000000000000000000000000000000000000000000600052602260045260246000fd5b60006002820490506001821680611e1957607f821691505b602082108103611e2c57611e2b611dd2565b5b50919050565b7f496e76616c696420616d6f756e74000000000000000000000000000000000000600082015250565b6000611e68600e83611a3b565b9150611e7382611e32565b602082019050919050565b60006020820190508181036000830152611e9781611e5b565b9050919050565b7f4e6f206c697175696469747920696e20706f6f6c000000000000000000000000600082015250565b6000611ed4601483611a3b565b9150611edf82611e9e565b602082019050919050565b60006020820190508181036000830152611f0381611ec7565b9050919050565b7f4e487b7100000000000000000000000000000000000000000000000000000000600052601160045260246000fd5b6000611f4482611b45565b9150611f4f83611b45565b9250828202611f5d81611b45565b91508282048414831517611f7457611f73611f0a565b5b5092915050565b7f4e487b7100000000000000000000000000000000000000000000000000000000600052601260045260246000fd5b6000611fb582611b45565b9150611fc083611b45565b925082611fd057611fcf611f7b565b5b828204905092915050565b6000611fe682611b45565b9150611ff183611b45565b925082820390508181111561200957612008611f0a565b5b92915050565b60006040820190506120246000830185611bf1565b6120316020830184611c1b565b9392505050565b61204181611bbb565b811461204c57600080fd5b50565b60008151905061205e81612038565b92915050565b60006020828403121561207a57612079611ae2565b5b60006120888482850161204f565b91505092915050565b7f43616e206f6e6c792073776170206f6e6520646972656374696f6e206174206160008201527f2074696d65000000000000000000000000000000000000000000000000000000602082015250565b60006120ed602583611a3b565b91506120f882612091565b604082019050919050565b6000602082019050818103600083015261211c816120e0565b9050919050565b7f4d7573742073776170206174206c65617374206f6e6520746f6b656e00000000600082015250565b6000612159601c83611a3b565b915061216482612123565b602082019050919050565b600060208201905081810360008301526121888161214c565b9050919050565b7f496e73756666696369656e74206c697175696469747900000000000000000000600082015250565b60006121c5601683611a3b565b91506121d08261218f565b602082019050919050565b600060208201905081810360008301526121f4816121b8565b9050919050565b60006060820190506122106000830186611bf1565b61221d6020830185611bf1565b61222a6040830184611c1b565b949350505050565b600061223d82611b45565b915061224883611b45565b92508282019050808211156122605761225f611f0a565b5b92915050565b600060808201905061227b6000830187611c1b565b6122886020830186611c1b565b6122956040830185611c1b565b6122a26060830184611c1b565b95945050505050565b60006060820190506122c06000830186611bf1565b6122cd6020830185611c1b565b6122da6040830184611c1b565b949350505050565b7f496e76616c696420616d6f756e74730000000000000000000000000000000000600082015250565b6000612318600f83611a3b565b9150612323826122e2565b602082019050919050565b600060208201905081810360008301526123478161230b565b905091905056fea2646970667358221220217761ba668e29f95682fd596036d2a2c6b2dcc5cfabe788839e1d9ddf3790ec64736f6c634300081e0033","linkReferences":{}},"methodIdentifiers":{"addLiquidity(uint256,uint256)":"9cd441da","allowance(address,address)":"dd62ed3e","approve(address,uint256)":"095ea7b3","balanceOf(address)":"70a08231","decimals()":"313ce567","k()":"b4f40c61","name()":"06fdde03","removeLiquidity(uint256)":"9c8f9f23","swap(uint256,uint256)":"d96073cf","symbol()":"95d89b41","tokenX()":"16dc165b","tokenY()":"b7d19fc4","totalSupply()":"18160ddd","transfer(address,uint256)":"a9059cbb","transferFrom(address,address,uint256)":"23b872dd","xReserve()":"99839d66","yReserve()":"fc4b6b50"},"id":24}